:020000040800F2
:1000000000000220C1930008316600083566000830
:10001000396600083D6600084166000800000000DF
:10002000000000000000000000000000456600081D
:1000300049660008000000004D660008516600088F
:1000400011940008119400081194000811940008FC
:1000500011940008119400081194000811940008EC
:1000600011940008119400085566000811940008C6
:1000700011940008119400085D6600086966000884
:100080007566000811940008119400081194000886
:1000900011940008119400081194000811940008AC
:1000A000119400081194000811940008119400089C
:1000B000119400081194000811940008119400088C
:1000C000119400081194000811940008816600083A
:1000D0001194000811940008119400088D6600081E
:1000E000119400081194000811940008119400085C
:1000F00011940008996600081194000811940008F2
:10010000119400081194000811940008A5660008D5
:10011000119400081194000811940008119400082B
:10012000B16600081194000811940008BD6600082B
:100130001194000800000000000000001194000865
:10014000119400081194000811940008C966000871
:1001500011940008119400081194000811940008EB
:10016000D5660008E16600081194000811940008A3
:100170001194000811940008000000000000000025
:0801800011940008119400081D
:1001880010B5054C237833B9044B13B10448AFF3C9
:1001980000800123237010BDA4040020000000008B
:1001A8006098000808B5034B1BB103490348AFF337
:1001B800008008BD00000000A80400206098000826
:1001C80081F0004102E000BF83F0004330B54FEA00
:1001D80041044FEA430594EA050F08BF90EA020F6D
:1001E8001FBF54EA000C55EA020C7FEA645C7FEA00
:1001F800655C00F0E2804FEA5454D4EB5555B8BF23
:100208006D420CDD2C4480EA020281EA030382EA93
:10021800000083EA010180EA020281EA0303362D25
:1002280088BF30BD11F0004F4FEA01314FF4801CF8
:100238004CEA113102D0404261EB410113F0004F0A
:100248004FEA03334CEA133302D0524263EB4303C1
:1002580094EA050F00F0A780A4F10104D5F1200E5F
:100268000DDB02FA0EFC22FA05F2801841F10001BA
:1002780003FA0EF2801843FA05F359410EE0A5F18E
:1002880020050EF1200E012A03FA0EFC28BF4CF0BF
:10029800020C43FA05F3C01851EBE37101F0004575
:1002A80007D54FF0000EDCF1000C7EEB00006EEB82
:1002B8000101B1F5801F1BD3B1F5001F0CD349080C
:1002C8005FEA30004FEA3C0C04F101044FEA445263
:1002D80012F5800F80F09A80BCF1004F08BF5FEAEA
:1002E800500C50F1000041EB045141EA050130BDCA
:1002F8005FEA4C0C404141EB010111F4801FA4F16D
:100308000104E9D191F0000F04BF01460020B1FAC1
:1003180081F308BF2033A3F10B03B3F120020CDAF9
:100328000C3208DD02F1140CC2F10C0201FA0CF0D7
:1003380021FA02F10CE002F11402D8BFC2F1200C3C
:1003480001FA02F120FA0CFCDCBF41EA0C019040F2
:10035800E41AA2BF01EB0451294330BD6FEA04043B
:100368001F3C1CDA0C340EDC04F11404C4F1200226
:1003780020FA04F001FA02F340EA030021FA04F338
:1003880045EA030130BDC4F10C04C4F1200220FA8F
:1003980002F001FA04F340EA0300294630BD21FACD
:1003A80004F0294630BD94F0000F83F4801306BF93
:1003B80081F480110134013D4EE77FEA645C18BF87
:1003C8007FEA655C29D094EA050F08BF90EA020F1E
:1003D80005D054EA000C04BF1946104630BD91EA16
:1003E800030F1EBF0021002030BD5FEA545C05D119
:1003F8004000494128BF41F0004130BD14F5800458
:100408003CBF01F5801130BD01F0004545F0FE41CB
:1004180041F470014FF0000030BD7FEA645C1ABF00
:10042800194610467FEA655C1CBF0B46024650EA37
:10043800013406BF52EA033591EA030F41F4002163
:1004480030BD00BF90F0000F04BF0021704730B5E9
:100458004FF4806404F132044FF000054FF00001BE
:1004680050E700BF90F0000F04BF0021704730B57F
:100478004FF4806404F1320410F0004548BF404254
:100488004FF000013EE700BF42004FEAE2014FEAA9
:1004980031014FEA02701FBF12F07F4393F07F4F84
:1004A80081F06051704792F0000F14BF93F07F4FB6
:1004B800704730B54FF4607401F0004521F00041F9
:1004C80020E700BF50EA010208BF704730B54FF07F
:1004D80000050AE050EA010208BF704730B511F084
:1004E800004502D5404261EB41014FF4806404F1BC
:1004F80032045FEA915C3FF4DCAE4FF003025FEA3E
:10050800DC0C18BF03325FEADC0C18BF033202EBC5
:10051800DC02C2F1200300FA03FC20FA02F001FA1F
:1005280003FE40EA0E0021FA02F11444C1E600BFBE
:1005380070B54FF0FF0C4CF4E06C1CEA11541DBF71
:100548001CEA135594EA0C0F95EA0C0F00F0DEF83C
:100558002C4481EA030621EA4C5123EA4C5350EA21
:10056800013518BF52EA033541F4801143F4801372
:1005780038D0A0FB02CE4FF00005E1FB02E506F003
:100588000042E0FB03E54FF00006E1FB03569CF058
:10059800000F18BF4EF0010EA4F1FF04B6F5007F5E
:1005A80064F5407404D25FEA4E0E6D4146EB0606D0
:1005B80042EAC62141EA55514FEAC52040EA5E5059
:1005C8004FEACE2EB4F1FD0C88BFBCF5E06F1ED803
:1005D800BEF1004F08BF5FEA500E50F1000041EB3A
:1005E800045170BD06F0004646EA010140EA0200E7
:1005F80081EA0301B4EB5C04C2BFD4EB0C0541EA09
:10060800045170BD41F480114FF0000E013C00F31D
:10061800AB8014F1360FDEBF002001F0004170BD41
:10062800C4F10004203C35DA0C341BDC04F114045A
:10063800C4F1200500FA05F320FA04F001FA05F2E6
:1006480040EA020001F0004221F0004110EBD370B3
:1006580021FA04F642EB06015EEA430E08BF20EADF
:10066800D37070BDC4F10C04C4F1200500FA04F382
:1006780020FA05F001FA04F240EA020001F0004114
:1006880010EBD37041F100015EEA430E08BF20EA87
:10069800D37070BDC4F1200500FA05F24EEA020ECF
:1006A80020FA04F301FA05F243EA020321FA04F0FE
:1006B80001F0004121FA04F220EA020000EBD370B5
:1006C8005EEA430E08BF20EAD37070BD94F0000FB5
:1006D8000FD101F00046400041EB010111F4801FE9
:1006E80008BF013CF7D041EA060195F0000F18BF9A
:1006F800704703F00046520043EB030313F4801FD6
:1007080008BF013DF7D043EA0603704794EA0C0F8F
:100718000CEA135518BF95EA0C0F0CD050EA4106A5
:1007280018BF52EA4306D1D181EA030101F0004122
:100738004FF0000070BD50EA410606BF104619464A
:1007480052EA430619D094EA0C0F02D150EA013656
:1007580013D195EA0C0F05D152EA03361CBF104697
:1007680019460AD181EA030101F0004141F0FE4136
:1007780041F470014FF0000070BD41F0FE4141F4BA
:10078800780170BD70B54FF0FF0C4CF4E06C1CEABA
:1007980011541DBF1CEA135594EA0C0F95EA0C0F6F
:1007A80000F0A7F8A4EB050481EA030E52EA03352A
:1007B8004FEA013100F088804FEA03334FF080554B
:1007C80045EA131343EA12634FEA022245EA111578
:1007D80045EA10654FEA00260EF000419D4208BF29
:1007E800964244F1FD0404F5407402D25B084FEAD6
:1007F8003202B61A65EB03055B084FEA32024FF482
:1008080080104FF4002CB6EB020E75EB030E22BFDE
:10081800B61A754640EA0C005B084FEA3202B6EB9E
:10082800020E75EB030E22BFB61A754640EA5C004D
:100838005B084FEA3202B6EB020E75EB030E22BFDD
:10084800B61A754640EA9C005B084FEA3202B6EBDE
:10085800020E75EB030E22BFB61A754640EADC009D
:1008680055EA060E18D04FEA051545EA16754FEAFF
:1008780006164FEAC30343EA52734FEAC2025FEA1D
:100888001C1CC0D111F4801F0BD141EA00014FF0AC
:1008980000004FF0004CB6E711F4801F04BF01437D
:1008A8000020B4F1FD0C88BFBCF5E06F3FF6AFAE99
:1008B800B5EB030C04BFB6EB020C5FEA500C50F129
:1008C800000041EB045170BD0EF0004E4EEA1131AC
:1008D80014EB5C04C2BFD4EB0C0541EA045170BDB3
:1008E80041F480114FF0000E013C90E645EA060EF7
:1008F8008DE60CEA135594EA0C0F08BF95EA0C0F25
:100908003FF43BAF94EA0C0F0AD150EA01347FF46C
:1009180034AF95EA0C0F7FF425AF104619462CE743
:1009280095EA0C0F06D152EA03353FF4FDAE1046A6
:10093800194622E750EA410618BF52EA43067FF4F7
:10094800C5AE50EA41047FF40DAF52EA43057FF487
:10095800EBAE12E74FF0FF3C06E000BF4FF0010C92
:1009680002E000BF4FF0010C4DF804CD4FEA410CF6
:100978007FEA6C5C4FEA430C18BF7FEA6C5C1BD0C3
:1009880001B050EA410C0CBF52EA430C91EA030F44
:1009980002BF90EA020F0020704710F1000F91EAA1
:1009A800030F58BF994208BF90422CBFD8176FEA6F
:1009B800E37040F0010070474FEA410C7FEA6C5C3D
:1009C80002D150EA013C07D14FEA430C7FEA6C5C44
:1009D800D6D152EA033CD3D05DF8040B704700BF70
:1009E8008446104662468C461946634600E000BFBE
:1009F80001B5FFF7B7FF002848BF10F1000F01BD90
:100A08004DF808EDFFF7F4FF0CBF012000205DF85A
:100A180008FB00BF4DF808EDFFF7EAFF34BF0120DF
:100A280000205DF808FB00BF4DF808EDFFF7E0FF78
:100A380094BF012000205DF808FB00BF4DF808EDC9
:100A4800FFF7CEFF94BF012000205DF808FB00BF30
:100A58004DF808EDFFF7C4FF34BF012000205DF812
:100A680008FB00BF4FEA410C7FEA6C5C02D150EAF8
:100A7800013C0AD14FEA430C7FEA6C5C02D152EA8E
:100A8800033C02D14FF0000070474FF0010070475F
:100A98004FEA4102B2F1E04324BFB3F5001CDCF198
:100AA800FE5C0DD901F0004C4FEAC0024CEA5070D0
:100AB800B2F1004F40EB830008BF20F001007047FF
:100AC80011F0804F21D113F13872BCBF01F0004002
:100AD800704741F480114FEA5252C2F11802C2F134
:100AE800200C10FA0CF320FA02F018BF40F00100B5
:100AF8004FEAC1234FEAD32303FA0CFC40EA0C0067
:100B080023FA02F34FEA4303CCE77FEA625307D1A3
:100B180050EA01331EBF4FF0FE4040F440007047DA
:100B280001F0004040F0FE4040F40000704700BF74
:100B380053B94AB9002908BF00281CBF4FF0FF313C
:100B48004FF0FF3000F07AB9ADF1080C6DE904CE32
:100B580000F006F8DDF804E0DDE9022304B0704790
:100B68002DE9F0478C460D460446089E002B51D1CE
:100B78008A4217466DD9B2FA82FEBEF1000F0BD039
:100B8800CEF1200C01FA0EF520FA0CFC02FA0EF751
:100B98004CEA050C00FA0EF44FEA174A250CBCFB88
:100BA800FAF81FFA87F90AFB18CC45EA0C4508FB46
:100BB80009F3AB420AD9ED1908F1FF3280F023811D
:100BC800AB4240F22081A8F102083D44ED1AA4B2DC
:100BD800B5FBFAF00AFB105544EA054400FB09F995
:100BE800A14509D9E41900F1FF3380F00A81A14534
:100BF80040F2078102383C44A4EB090440EA08406B
:100C08000021002E61D024FA0EF4002334607360B2
:100C1800BDE8F0878B4207D9002E54D0002186E822
:100C280021000846BDE8F087B3FA83F1002940F0B7
:100C38008E80AB4202D3824200F2FA80841A65EBBE
:100C480003050120AC46002E3FD086E81010BDE811
:100C5800F08712B90127B7FBF2F7B7FA87FEBEF1A2
:100C6800000F34D1EB1B3A0C1FFA87FC0121B3FBB0
:100C7800F2F8250C02FB183345EA03450CFB08F390
:100C8800AB4207D9ED1908F1FF3002D2AB4200F2AE
:100C9800D1808046ED1AA3B2B5FBF2F002FB1055E5
:100CA80043EA05440CFB00FCA44507D9E41900F10C
:100CB800FF3302D2A44500F2B8801846A4EB0C0416
:100CC80040EA08409DE731463046BDE8F087CEF15E
:100CD800200405FA0EF307FA0EF720FA04F83A0C86
:100CE80025FA04F448EA0308B4FBF2F14FEA184580
:100CF80002FB11441FFA87FC45EA044501FB0CF38B
:100D0800AB4200FA0EF409D9ED1901F1FF3080F079
:100D18008A80AB4240F2878002393D44EB1A1FFAC1
:100D280088F5B3FBF2F002FB103345EA034500FBFC
:100D38000CF3AB4207D9ED1900F1FF386FD2AB4283
:100D48006DD902383D44EB1A40EA01418FE7C1F101
:100D5800200722FA07F88B4005FA01F448EA030352
:100D680020FA07FE4FEA134CFD404EEA040EB5FB8D
:100D7800FCF94FEA1E440CFB19551FFA83F844EAA4
:100D8800054509FB08F4AC4202FA01F200FA01FA3F
:100D980008D9ED1809F1FF3043D2AC4241D9A9F185
:100DA80002091D442D1B1FFA8EFEB5FBFCF00CFB3F
:100DB80010554EEA054400FB08F8A04507D9E41889
:100DC80000F1FF3529D2A04527D902381C4440EA52
:100DD8000940A4EB0804A0FB02894C45C6464D46D1
:100DE80015D312D056B1BAEB0E0364EB050404FA1E
:100DF80007F7CB401F43CC40376074600021BDE843
:100E0800F0871846F8E69046E0E6C245EAD2B8EB25
:100E1800020E69EB03050138E4E72846D7E74046A8
:100E280091E78146BEE7014678E702383C4445E74A
:100E3800084608E7A8F102083D442BE7704700BFC1
:100E480038B50E4A0E4B12781B6805464FF47A7077
:100E5800B0FBF2F0B3FBF0F000F0B6F808B90F2DD4
:100E680001D9012038BD0446024629464FF0FF301B
:100E780000F05AF8034B20461D6038BD00000020E2
:100E8800180100200400002008B50B4B1A6842F432
:100E980000721A601A6842F480621A601A6842F492
:100EA80080721A60032000F02DF80020FFF7C8FFB9
:100EB80005F09EFB002008BD003C0240034A044B9D
:100EC80011681B780B441360704700BFD4040020DE
:100ED80000000020014B1868704700BFD4040020B0
:100EE80038B50446FFF7F6FF631C054602D0044BED
:100EF8001B781C44FFF7EEFF401B8442FAD838BD2C
:100F080000000020074AD3684FF6FF010B4000029B
:100F180043F0BF6300F4E06043F400330343D3605D
:100F2800704700BF00ED00E0184B70B4DC68C4F3F4
:100F38000224C4F10706042E04F1040328BF042682
:100F4800062B17D9033C0125A540013D2A40012362
:100F5800B340013B1940A140002841EA02010CDBE3
:100F680000F1604000F561400901C9B280F8001342
:100F780070BC704700221446E9E7054B00F00F00EB
:100F880009010344C9B2197670BC704700ED00E04E
:100F9800FCEC00E000F01F0101234009024A8B40ED
:100FA80042F82030704700BF00E100E043092033D9
:100FB80000F01F000122034902FA00F041F8230063
:100FC800704700BF00E100E00138B0F1807F0ED229
:100FD800084B10B4084C5860F02084F82300002215
:100FE800072110469A6019605DF8044B704701208C
:100FF800704700BF10E000E000ED00E0F8B50446DF
:10100800FFF768FF002C73D00222236884F835208C
:101018001A68002122F0010284F8341005461A608B
:1010280005E0FFF757FF401B05283BD823681A68DF
:10103800D107F6D4A7686268E66825696169A0697E
:101048003A4332432A430A43E169256A1F68354E09
:1010580002430A43616A2A433E40042942EA0602DF
:1010680027D01A605A6922F007021143DAB22E4DCE
:101078005961103AA5FB021212092C4823F47F7318
:10108800815CE16523F00303032A88BF04333F2210
:101098008A4001250021A36508469A60616584F8A5
:1010A8003550F8BD032320226265184684F8353090
:1010B800F8BDE56A216BA66A29430A431A605A6992
:1010C80046F0040122F007021143002DCED088B16A
:1010D800B0F5005F18D0022E03D9032EC6D1EA015D
:1010E800C4D5012340226265184684F83530F8BD1E
:1010F8000120F8BD012E03D0F1D3022EB6D1EEE7C0
:10110800B5F1C07FB2D1ECE7032EAFD801A252F8F7
:1011180026F000BFEB100008E7100008EB100008ED
:10112800091100083F8010F0ABAAAAAA7898000815
:1011380000282FD090F83530DBB2022B2BD0036873
:101148001649DAB270B4103A1C68154DA1FB0212A8
:101158001209002124F0010421261C60196059603D
:101168009960D96019615E6123F47F73AD5CC565D0
:1011780023F00303032A88BF04333F210022A94038
:10118800836570BC9960426580F8342080F835200A
:101198001046704701231846704700BFABAAAAAA99
:1011A80078980008F0B490F83440012C0DD090F8ED
:1011B8003540866D0125AC4280F8345008D00023B4
:1011C80080F834300220F0BC70470220F0BC704731
:1011D80004680227002580F835704565256887680A
:1011E80025F48025402F256063600ABFA260A160B6
:1011F800E160C16D18BFE2603F238B40026CB360B1
:10120800236843F016032360636943F08003636136
:101218001AB1236843F008032360236843F00103ED
:1012280023600020CFE700BF90F83530022B03D0B1
:1012380080234365012070470268052380F8353014
:10124800136823F00103136000207047F0B583B0E2
:101258000023876D0193C36D3D68624908229A4057
:10126800154204460E6803D001680868400776D422
:1012780001229A40154203D021684969080668D4BA
:1012880004229A40154203D02168096889075AD474
:1012980010229A40154203D02168086800073FD4FD
:1012A80020229A40154203D021680868C00625D438
:1012B800636D0BB3636DDA071AD50523216884F8CB
:1012C80035300B68484A23F00103A2FB06020B6085
:1012D800920A02E00B68DB0704D5019B01339A42AE
:1012E8000193F7D20022012384F8342084F83530A2
:1012F800E36C0BB12046984703B0F0BDBA6094F890
:101308003520052A3BD00B6813F4802F0B6854D086
:1013180019035FD5E36B002BCAD020469847C7E76F
:10132800BA600A6812F4802F0A6822D1D20503D461
:101338000A6822F008020A60226C002AB0D020460F
:101348009047E36DACE7BA60626D42F004026265F3
:101358009EE7BA60626D42F00202626590E7086833
:1013680020F004000860BA60626D42F00102626514
:101378007EE71103E0D5A26C002AE0D190E70A6865
:10138800206C22F016020A604A6922F080024A6143
:1013980020B30A6822F008020A603F22216D02FA8F
:1013A80003F300200122BB6084F8340084F8352060
:1013B8000029A1D0204688479EE713F48073A9D15D
:1013C8000A68012022F010020A6084F8343084F898
:1013D80035009FE7636C002B9FD169E7A26C002A58
:1013E800D7D1DAE718010020B5814E1B406D704750
:1013F8001B4BDA68D10605D51A49CA691020024381
:10140800CA61D860164BDA68920606D51549CA69CA
:10141800202042F00802CA61D860114BDA685006F1
:1014280006D51049CA69402042F00402CA61D86052
:101438000B4BDA68110606D50A49CA69802042F0C2
:101448000202CA61D860064BDA68920706D50549D8
:10145800CA69022042F02002CA61D860704700BF02
:10146800003C0240D8040020124B70B5002205460B
:10147800DA61FFF72FFD104C064601E0691C10D118
:10148800E368DA03FAD4E368DB0744BF0123E360C7
:10149800094BD86810F0F20002D0FFF7A9FF01202D
:1014A80070BD25B1FFF716FD801B8542E8D20320E9
:1014B80070BD00BFD8040020003C02402DE9F04177
:1014C800284C257E012D02D10220BDE8F0811F465F
:1014D800054601234CF2503090460E462376FFF71E
:1014E800C3FFB8B9204B1A6922F440721A611A690D
:1014F800A5B91A6119695FFA88F241F00101196109
:1015080032704CF25030FFF7AFFF174A136923F0DF
:101518000103136100232376BDE8F081012D16D065
:10152800022D0AD042F440721A611A6942F001028F
:101538001A61C6F800807760E3E742F400721A6126
:101548001A6942F001021A61C6F80080D9E742F42C
:1015580080721A6119691FFA88F241F00101196154
:101568003280CEE7D8040020003C024039B101297E
:101578001CD002290CBF4FF400714FF440710D4B81
:101588001A6922F440721A611A69114319611A69B9
:1015980022F0F8021A611A6942F0020242EAC00017
:1015A80018611A6942F480321A6170474FF48071E9
:1015B800E5E700BF003C0240144B1A6891050FD5BF
:1015C8001A6822F400721A601A6842F400621A60FB
:1015D8001A6822F400621A601A6842F400721A60EB
:1015E8000A4B1A6852050FD51A6822F480621A60ED
:1015F8001A6842F480521A601A6822F480521A60FB
:101608001A6842F480621A60704700BF003C0240CA
:101618002DE9F8432D4E337E012B03D1022738469E
:10162800BDE8F883012304464CF2503088463376EF
:10163800FFF71AFF074648BB4FF0FF33C8F80030E2
:101648002368012B27D0A568E3682B449D421BD251
:10165800DFF87C9005E0E368A26801351344AB42EB
:1016680012D9217C2846FFF781FF4CF25030FFF752
:10167800FBFED9F8103023F0FA03C9F8103000281F
:10168800E9D0C8F800500746FFF796FF00233376E5
:101698003846BDE8F8830E4D23692A6922F4407262
:1016A8002A612A6942F004022A612A691B0242F46B
:1016B80080329BB213432B614CF25030FFF7D4FEBB
:1016C8002B6923F0040307462B61DDE7D8040020CB
:1016D800003C02402DE9F04FD1F800C0DFF8148239
:1016E800DFF814E283B0002503E00135102D00F087
:1016F8009B800123AB4003EA0C029342F5D14E686C
:1017080026F0100ABAF1020F00F091804FEA45095D
:101718000324D0F800B004FA09F4E44306F0030700
:101728000BEA040B07FA09F70AF1FF3A47EA0B0735
:10173800BAF1010F076040F2A080C7688B683C408F
:1017480003FA09F32343C360F300CED54FF0000931
:10175800CDF80490D8F8443043F48043C8F84430B6
:10176800D8F8444025F0030303F1804304F480448F
:1017780003F59C33019405F00304019FD3F808A0F6
:10178800A4000F27A7402AEA070A544FB84222D0DC
:1017980007F58067B84200F08380514FB84200F0E7
:1017A8008480504FB84200F085804F4FB84200F017
:1017B80086804E4FB84200F087804D4FB84200F007
:1017C8008880DFF8389148450CBF4FF007094FF083
:1017D800080909FA04F94AEA09079F60DEF80030A7
:1017E800D443F70354BF23401343CEF80030DEF848
:1017F8000430B70354BF23401343CEF80430DEF857
:101808000830F70254BF23401343CEF80830DEF8FF
:101818000C30B60205F1010554BF23401343102DC7
:10182800CEF80C307FF465AF03B0BDE8F08F4FEA17
:10183800D50900EB890905F00707D9F82040BF0052
:101848004FF00F0B0BFA07FB24EA0B0A0C69BC409C
:1018580044EA0A04C9F820404FEA45090324D0F8AD
:1018680000A004FA09F4E44306F003070AEA040AAC
:1018780007FA09F747EA0A070760876807EA040AC8
:10188800CF6807FA09F747EA0A078760D0F804A083
:10189800C6F300172AEA0303AF401F4347604CE72B
:1018A8004FF0010909FA04F995E74FF0020909FA1E
:1018B80004F990E74FF0030909FA04F98BE74FF0B0
:1018C800040909FA04F986E74FF0050909FA04F949
:1018D80081E74FF0060909FA04F97CE700000240A5
:1018E80000080240000C02400010024000140240B0
:1018F8000018024000380240003C0140001C024031
:101908002DE9F04F0023DFF83C91DFF83C81DFF848
:101918003CA102E00133102B6DD0012606FA03F238
:1019280032EA0104F6D14FF0030C03FA06F4056815
:101938000CFA04F4E44323FA0CF7254000EB87077C
:10194800056003F00705D7F820B04FF00F0EAD0083
:101958000EFA05F52BEA05053D6285682540856088
:101968004568D24315404560C76823F0030505F173
:1019780080453C4005F59C35C46003EA0C04AF681B
:10198800A4000EFA04FE484507EA0E0739D0504570
:1019980034D0264EB04236D0254EB04237D0254EF0
:1019A800B04237D0244EB04238D0244EB04239D05D
:1019B800234EB04221D0082606FA04F4A742A9D142
:1019C800AC6824EA0E04AC60D8F800401440C8F8AB
:1019D8000040D8F804401440C8F80440D8F808403B
:1019E8001440C8F80840D8F80C4001332240102BA6
:1019F800C8F80C2091D1BDE8F08F072606FA04F448
:101A0800DCE70024DAE7022606FA04F4D6E70CFA43
:101A180004F4D3E7042606FA04F4CFE7052606FA09
:101A280004F4CBE7062606FA04F4C7E700080240E8
:101A3800000C02400010024000140240001802404E
:101A4800001C024000000240003C0140000402402B
:101A58000369194214BF01200020704702B9090424
:101A680081617047044A5169014200D1704708B545
:101A7800506105F0A7FF08BD003C014000286CD06C
:101A8800F8B590F83D30044603F0FF02002B4FD024
:101A98002268334D242384F83D30136823F0010372
:101AA800136001F00DFE2F4A61682368A2FB0062F3
:101AB800920CA9425A6026D84900B0FBF1F0C0F355
:101AC8000B01013203291A6298BF0420E569D4F892
:101AD80020E02169E7686269A669D86145EA0E05D0
:101AE800394332431D609960DA601968002241F079
:101AF8000101202519601046226484F83D502263B4
:101B080084F83E20F8BD4FF49675174FA66805FB7C
:101B180002F2A7FB0252920901321A626EB901EB76
:101B28004101B0FBF1F0C0F30B029AB90120CDE7F7
:101B380080F83C2004F0D4FAAAE701EB810101EB1C
:101B48008101B0FBF1F0C0F30B02002AEED040F4A3
:101B58004040BBE740F40040B8E70120704700BFB1
:101B6800A086010083DE1B43D34D6210F0B583B01D
:101B78000023019390F83D30202B02D0022003B0BF
:101B8800F0BDF1B1EAB1304B304C1B68DB08A4FB67
:101B980003431B0A03EB830303EB8303019303E073
:101BA80003689C69A5070ED5019B5C1E0194002B58
:101BB800F6D12022036380F83C3080F83D200320D2
:101BC800DDE70120DBE790F83C40012CD6D01C680B
:101BD8000125E40780F83C5002D41C682C431C60A3
:101BE8001C681B4F1B4E054696461A4624F4006493
:101BF8002123406B42F8104B85F83D300024202308
:101C080085F83E302C64A5F82AE0EF626B8D124F00
:101C180069629BB22B850464446484640465C6636A
:101C2800C764FFF7BFFA2B681A6842F480621A602B
:101C38005A6885F83C4042F440725A605A6842F447
:101C4800006220465A609AE71801002089B5F81406
:101C58000000FFFFB51C0008811C0008704700BF8A
:101C6800704700BF704700BF704700BF704700BF94
:101C7800704700BF704700BF10B5846BFFF7B6FB15
:101C8800022812D021680B68002223F480632020E8
:101C98000B60628584F83D0084F83E20236C43F095
:101CA80010032364204605F0D1FE10BD806B08B5F3
:101CB80090F83D3090F83E20DBB2212B25D0222B26
:101CC80020D003681A6822F480621A601A6842F405
:101CD80000721A605A6822F480525A605A680021C9
:101CE80022F400625A604185036CEBB9202280F827
:101CF8003D2090F83E2080F83E30402A11D0FFF772
:101D0800AFFF08BDD2B2202ADBD103685A68002190
:101D180022F400625A6041855A6842F440725A605F
:101D280008BDFFF7A7FF08BD05F090FE08BD00BF7E
:101D3800704700BF38B590F83D30293B012B044669
:101D48004DD990F83D30602B036805D05A681505C9
:101D58005CBF202280F83D200022226384F83E20C8
:101D68001A6822F400621A605A6812F4006213D0EA
:101D78005A68606B22F400625A6090F83530012B83
:101D880034D0394B0365FFF74FFA00285FD194F838
:101D98003D30282B13D038BD94F83D10602941D030
:101DA8005A69520604D5626A1B69511C6162137034
:101DB800204605F04BFE94F83D30282BEBD1236CE0
:101DC8005B07E8D5294BE3622022002323632046E2
:101DD80084F83D2084F83E30FFF748FF38BD0023E3
:101DE80028220363036880F83D20B9E7A06B1E4BE7
:101DF8000365FFF719FA0028C9D023685A69500605
:101E080005D5626A1B69511C6162137023681A68E0
:101E1800A06B22F0010220211A60036D84F83D10A6
:101E28009847B4E7202184F83D1022645A69510686
:101E380005D5626A1B69511C6162137023681A68B0
:101E480022F001021A602046FFF772FF9FE722681E
:101E5800606B1368016D23F001032025136084F87B
:101E68003D50884793E700BF9D2700080000FFFF0B
:101E7800F0B5036804469D695969586894F83E208E
:101E8800D2B2102A8DB000F08F80402A00F08C80EA
:101E98008D4A0A401AB3820500F1E9818B4A2A402B
:101EA800002A00F0F9808A4A0A40002A40F09A8104
:101EB800884A0A40002A00F0D480860540F1D18083
:101EC800628D92B2002A00F0CC80626A511C616275
:101ED80012781A61638D013B9BB26385C1E07E4F26
:101EE8000F40002FDAD08605D8D594F83D00596800
:101EF80021F4E06159600B925A690B92196841F01C
:101F0800010119600B9A196821F4806119605968F8
:101F1800C2B208051E460ED594F83D10222900F0DD
:101F28003E8294F83D102A2900F03982616B0968D5
:101F3800496889B26185618D89B2E1B159694907FA
:101F480009D5616A1B69481C60620B70638D26683D
:101F5800013B9BB2638573695B0608D5636A316987
:101F6800581C60621970638D013B9BB26385236CBA
:101F780043F004032364236C002B40F01682A2F183
:101F88002801022940F2D581236B222B01D0222A75
:101F980067D1002320222363204684F83D2084F85B
:101FA8003E30FFF75FFE5CE011F0011F43D086056D
:101FB80000F14681494A0A40002A54D0434A2A403F
:101FC800002A44D0424A0A40002A00F08B80470584
:101FD80040F188803F4A0A40002A40F0878094F800
:101FE8003D20258D94F83E10E06AD2B2C9B2002D8A
:101FF80040F0FD81212A00F04A82402931D1222A6D
:102008002FD1628D92B2002A00F0618294F83E20AE
:10201800402A7FF45AAF226D002A40F0DA82E26C3F
:10202800012AA26C00F0F582C2F307221A61236D1F
:102038000133236515E0294A0A40A2B18205BDD5BE
:10204800626CD2B21A61214A2A40002ABAD1244AC3
:102058000A40002A76D11F4A0A4012B1810500F1D0
:1020680020810DB0F0BD184A0A40002AA6D0870585
:10207800A4D594F83E20E76AD4F830E094F83D609F
:10208800222ED2B200F06E8100220A925A690A9278
:102098009A690A920A9A91E7114A0A40002A74D169
:1020A8000C4A0A40002ADCD08205DAD5628D92B249
:1020B800002AD6D0626A1B69511C61621370638D55
:1020C800013B9BB26385CCE70200010004001000CD
:1020D8008000010004000100100001000800010058
:1020E800400001009D4A0A40002ABAD08605B8D5AA
:1020F800E16A94F83D20212AB3D1628D92B2002A78
:102108007FF4E3AE042905D0082903D011F5803FF8
:1021180040F0B0815A6822F4E0625A601A680021DF
:10212800202042F400721A60216384F83D0094F87C
:102138003E3084F83E10402B204600F0C581FFF762
:102148008DFD8EE7450586D5844A0A40002A85D14B
:1021580094F83D10222984D1618D89B2032940F277
:102168006681626A1B69511C61621370638D013B51
:102178009BB26385638D9BB2032B7FF472AF226899
:10218800536823F4806353606BE7450588D5734A29
:102198000A40002A88D194F83D10628D92B2C9B2E3
:1021A800002A3FF45EAF626A1B69501C60621370BC
:1021B800638D013B9BB26385638D9BB2002B7FF4DB
:1021C80050AF2A297FF44DAF22685368222523F4A3
:1021D8008063282153602046256384F83D10FFF76B
:1021E80041FD3EE747057FF563AE5C4A0A40002A99
:1021F8007FF463AE94F83D10628D92B2C9B2002AA2
:102208003FF42FAF626A501C606212781A61628DC7
:10221800013A92B26285628D92B2002A7FF421AFB0
:1022280029297FF41EAF5A68212522F480622821CB
:102238005A602046256384F83D1005F0FDFB10E741
:1022480094F83E20402A6CD02269B2F5804F1CD009
:10225800226D002A79D0226D012A7FF4AFAE626C1C
:10226800D21102F0060242F0F1021A61A6E699695B
:102278009B6981F004011F06C1F3800154BFA28944
:10228800228B2046FFF7F0FCEBE694F83D20212A4C
:10229800626C16BF42F0010202F0FE02D2B21A616D
:1022A8008CE6E16A628D92B2042A00F08880628D21
:1022B80092B2032A00F09180628D92B2022A7FF4D2
:1022C800F9AE013901291A6840F2CC8042F4007253
:1022D8001A60626A1B69511C61621370638D626ABD
:1022E8002168013B9BB263850B69511C61621370C5
:1022F800638D2168013B9BB263854B68202023F4E2
:1023080040734B60002284F83D00226394F83E300D
:1023180084F83E20402B204600F0A180FFF7A0FC67
:102328009FE6226D002A44D1626C02F0FE021A6117
:1023380044E60B4AE26220222363204684F83D20CB
:1023480084F83E30FFF792FC8BE6626CD21102F003
:10235800060242F0F0021A6130E600BF04000100F4
:102368000000FFFF266D16B9402A00F0D080266DC8
:1023780026B92269B2F5404F00F0D080628D92B242
:10238800002A38D103925A6903929A690392039AF0
:102398001A6842F400721A60002222650EE6A16BE8
:1023A8000968496889B26185C5E52046FFF7C2FC1E
:1023B80057E6626C42F00102D2B21A61FEE55A6831
:1023C800616A22F480625A601B694A1C62620B705F
:1023D800638D013B9BB2638543E65A68616A22F4C8
:1023E80080625A601A6822F480621A60ECE7212A37
:1023F8007FF403AE05E6628D92B2012A6CD0628D3D
:1024080092B2022A00F098801A6842F480621A6038
:102418005A68120503D55A6842F480525A6000225D
:1024280009925A6909929A690992099AB4E70129A5
:102438003FF617AE1968606A21F48061196059681F
:1024480021F4E06159601B69411C61620370638D6E
:10245800013B9BB22021638584F83D1055E7FFF7C7
:1024680009FCFEE522F480621A601A6842F4807260
:102478001A602EE75968112621F4E0612025596079
:102488002046266384F83E2084F83D5057E6042809
:1024980005D0082803D010F5803F40F08B805A689B
:1024A80022F4E0625A6019680022202041F4007189
:1024B8001960226384F83D0094F83E3084F83E2089
:1024C800402B20467FF43BAEFFF7D2FBC9E55A68A4
:1024D80022F480625A60C4E517F5803F56D0042F75
:1024E80044D0082F42D0BEF1120F3FD0E26A022A30
:1024F8001A6814BF22F4806242F480621A600022D3
:1025080006925A6906929A690692069A44E70196D3
:102518005A6901929A690192019A4FE502965A699D
:1025280002929A690292029A1A6842F480721A60B8
:10253800226D0132226541E5E26A022A1A6859D001
:1025480022F480621A601A6842F400621A605A68BB
:10255800160503D55A6842F480525A600022089240
:102568005A6908929A690892089A15E71A68002623
:1025780022F480621A6007965A6907929A6907924C
:10258800079A1A6842F400721A6005E71A6822F47A
:1025980080621A605A6812F400622FD01A68002606
:1025A80022F480621A6004965A6904929A69049225
:1025B800049AF1E65A68112622F4E06220215A6052
:1025C8002046266384F83E5084F83D10FFF746FB0A
:1025D80047E5226D012A22D0226D022A7FF441ADFF
:1025E80094F83D20222A21D094F83D20212A7FF416
:1025F80038AD6AE442F480621A60A8E705925A6925
:1026080005929A690592059A1A6842F400721A604E
:10261800C2E6D2B21A61236D0233236521E5A26CAA
:10262800D2B21A61236D013323651AE51A6842F4A0
:1026380080721A6015E500BF0368544970B55D697A
:102648005A680D42044624D0D60522D5016C15F4EB
:10265800813F6FF4807041F001012164586147D0D7
:10266800216C6FF4007041F0020115F4823F21647F
:10267800586123D115F4843F08D0D20506D5226CC1
:102688006FF4006142F0080222645961236C5BB95F
:1026980070BD15F4813F0CD0D005E1D415F4823F0C
:1026A800E8D0236C002BF3D02046BDE87040FFF73C
:1026B80041BB15F4823FDDD0D105E7D594F83E0043
:1026C800628D94F83D10266B202892B2C9B213D0BF
:1026D800226C42F00402226494F83E20102A36D07C
:1026E8006FF480625A6115F4843FCFD02368C6E73F
:1026F80015F4823FE2D1BDE7002AE9D101F0F702E3
:10270800212A03D02829E3D1212EE1D194F83D20B4
:10271800E16A0429D2B21FD008291DD0212ADFD1AD
:102728001B49E16220200021226384F83D0084F8DF
:102738003E105A686FF4806122F4E0625A60596171
:102748001A680A401A60204605F076F9CBE71A683D
:1027580042F400721A60C3E7282ADFD10C4AE26209
:102768005A686FF4806122F4E0625A6059611A680D
:10277800002122F4806220261A602046216384F812
:102788003D6084F83E10FFF771FAACE700010100E4
:102798000000FFFF806B0268116838B521F4806182
:1027A8000023456B846B1160438590F83D102B65C1
:1027B80060294FF02001236580F83D1080F83E30F5
:1027C80006D0136823F00103136005F03FF938BD04
:1027D8000364136823F001031360FFF7A9FA38BDF7
:1027E800002868D0F0B5032305468BB080F8B933CC
:1027F800044604F087FA286802F0A8FA54F810EBA7
:1028080027460FCF6E460FC60FCF0FC697E80300B7
:1028180086E803002E1D96E80E00704602F052FA74
:102828000021286802F09AFA002108462B462A4619
:10283800012782F83810D18701310F2982F83970C1
:1028480082F83B0010645064D06402F11C02F0D19D
:1028580000222F68114602F1400083F8F821DA8738
:1028680007EB800001320F2A83F8F91183F8FB1176
:10287800C3F80012C3F80412C3F80C1203F11C03C6
:102888004160E8D10FCCEE46AEE80F000FCCAEE8C1
:102898000F0094E803008EE80300384696E80E001F
:1028A80002F076FA012385F8B933286802F0CCFDE6
:1028B80000200BB0F0BD0120704700BF90F8B8337E
:1028C800012B01D10220704710B50123044680F87E
:1028D800B833006802F0ACFD206802F02FFA00203F
:1028E80084F8B80310BD00BF2DE9F04F076889B020
:1028F8000446384602F0E4FD10B109B0BDE8F08F97
:102908000646206802F0ACFD0028F6D0206802F0E8
:10291800A7FD10F0020F206803D0436903F00203FB
:10292800436102F09DFD030300F1A5814FF0000A09
:10293800206802F095FD450300F1CF802368184612
:1029480002F08EFD0028C0F20B82206802F088FD9C
:10295800010548D4206802F083FDC3047FD42068B1
:1029680002F07EFD10F4005F20685AD102F078FD75
:1029780010F0100F206811D0836923F010038361D1
:102988003D6AC5F34343022B05F00F0600F0CB81E7
:10299800062B33D0836943F01003836102F060FD96
:1029A800070700F15F81206802F05AFDC60200F1B6
:1029B8004E81206802F054FD850200F13D812068B7
:1029C80002F04EFD400000F12E81206802F048FD23
:1029D800410792D523685D686A0700F192815A68B9
:1029E80015435D6089E7D7F80838DA0700F18E816A
:1029F8002068436903F400634361ACE7082204F5E7
:102A08006F713846C6EBC60602F0BEFC04EB8602C0
:102A1800C5F30A13D2F8101220680B44C2F810321A
:102A2800B8E702F051FD2068C36823F47053C3600F
:102A380002F07CFA002840F0D1812268E060D36877
:102A48004FF4007143F410536161D360204604F0E1
:102A5800ABF92068436903F40053436186E707F53F
:102A680000656B68206823F0010310216B6002F099
:102A78004BFA606850B107F51063FF2201368642B1
:102A88009A60C3F8082203F12003F7D14FF0FF330F
:102A9800AB61EB69226B43F00113EB61002A00F094
:102AA8003981D5F8843043F00B03C5F884306B6C5A
:102AB80043F00B036B64D7F80038217C206823F4BB
:102AC800FE63C7F8003804F56F7202F019FD20683C
:102AD800436903F48053436142E7206802F0CCFC69
:102AE8008346002800F096812368039707F510694C
:102AF80025464FF0000A04961F4609E05FEA5B0B83
:102B08000AF1010A05F11C0509F1200900F0EE801F
:102B18001BF0010FF2D05FFA8AF83846414602F0FE
:102B2800BDFC0646F00718D5039B2069D3F8341876
:102B3800012202FA0AF221EA0202C3F83428012328
:102B48009842C9F8083000F028814146204604F030
:102B58001DF92169012900F01281310744BF0823BA
:102B6800C9F80830F20644BF1023C9F808307306C4
:102B780044BF4023C9F80830B70744BF0223C9F847
:102B8800083030062768B9D507F5106303EB4A13F8
:102B9800E86CD5F850C02A6C06971946A0EB0C03D0
:102BA8009342059189691E4628BF164689B206F1E7
:102BB800030EB1EB9E0F28D9604526D928B3CDF86E
:102BC8001CA0696CDDF814A01E4604E0EA6C9A4269
:102BD80018D9D61A2A6C237C0093964228BF164629
:102BE800B3B24246384602F0B9FBDAF81820696CED
:102BF8002B6DF01C92B231443344B2EB900F6964F0
:102C08002B65E3D8DDF81CA02768002E7FF476AF8B
:102C1800069B0122D3F8341802FA0AF221EA0202CA
:102C2800C3F834286AE7204604F0F2F820684369BC
:102C380003F080434361C9E620465FFA8AF104F055
:102C4800DFF82068436903F400134361B8E62046BF
:102C58005FFA8AF104F0D8F82068436903F4801316
:102C68004361A7E6204604F09BF82068436903F017
:102C78000803436198E6206802F0F6FB0546002841
:102C88003FF454AE07F53068A1464FF0000A0396AA
:102C980007E06D080AF1010A08F1200809F11C098A
:102CA80022D0EE07F5D55FFA8AF63146206802F0A1
:102CB800EBFB10F0010F83460CD0226901239A42E6
:102CC800C8F808307BD03146204604F055F8216911
:102CD800012967D01BF0080F0CD11BF0100F1CBF87
:102CE8001023C8F80830D4E7039E21E63B46049E2B
:102CF800039F24E6204604F039F80823C8F8083072
:102D0800EBE7204604F088F8236868E6204604F0DC
:102D18005BF86DE66B6943F00B036B612B6943F05D
:102D28000B032B61C7E647F6F0731D423FF432AE42
:102D3800C6EBC60604EB8606C5F30A152A463846CE
:102D4800D6F8041202F020FBD6F80422D6F8103286
:102D580020682A442B44C6F80422C6F8103219E623
:102D6800D7F8042822F001022046C7F8042804F006
:102D780043F82068436903F000434361E6E5BAF18C
:102D8800000F7FF4EAAEE36C002B7FF4E6AE04F5A7
:102D98006F72206802F0B4FBDFE66B6C2A6C134498
:102DA8006B64D2E6BAF1000F94D1D4F80C32002B40
:102DB80090D104F56F72206802F0A2FB8AE7D8F878
:102DC8001020D9F80002D9F80412C2F31202821AAC
:102DD8000144C9F81022C9F8041274E703224023F9
:102DE800E260636100F066FC364B374A0344934265
:102DF80005D82268D36843F47053D36026E6334B72
:102E0800334A0344934207D82268D36843F4605393
:102E1800D3601BE6824691E5A0F574032D4AA3F51D
:102E28001053934205D82268D36843F45053D360B3
:102E38000CE6A0F18373284AA3F5E743934205D82B
:102E48002268D36843F44053D360FFE5234B244AF8
:102E58000344934205D82268D36843F43053D360BF
:102E6800F4E5204B204A0344934205D82268D368EE
:102E780043F42053D360E9E51C4B1D4A03449342B5
:102E880005D82268D36843F41053D360DEE5A0F177
:102E9800B773184AA3F55853934205D82268D368E4
:102EA80043F40053D360D1E5134B144A03449342CF
:102EB8002268D36894BF43F4E05343F4C053D3600B
:102EC800C4E500BF405327FFFF340C00401E1BFF22
:102ED8003F420F007F4F12001FD6130060B6E5FE79
:102EE8005FE3160000D3CEFE3F771B00C05BB3FE46
:102EF800BF9121001F753800E05459FEDF9C410046
:102F080090F8B833012B01D10220704710B5012386
:102F1800044680F8B833006802F07AFA002084F892
:102F2800B80310BD70B50C061BD4C1EBC10500EB8E
:102F380085051C24002604FB010485F8F811C5F852
:102F4800002285F8FB3185F8F96104F5FC71022B44
:102F580004BF00230B7190F8B833012B16D102205F
:102F680070BD01F07F01C1EBC10500EB85051C2494
:102F7800012604FB010485F83810E9872A6485F8DE
:102F88003B3085F8396004F13801E0E70123044655
:102F980080F8B833006801F0E5FF002084F8B80332
:102FA80070BD00BF4AB2002A10B5044618DB1C23C6
:102FB80003FB010303F5FC73D20F5A70197094F8E0
:102FC800B823012A01D1022010BD0122194684F834
:102FD800B823206802F00EF8002084F8B80310BD6A
:102FE80001F07F011C2303FB01033833E4E700BF32
:102FF80038B501F07F05C5EBC50400EB840400215A
:10300800C4F80422C4F8101284F8F911C4F80C3278
:1030180084F8F85103691C2101FB0501012B08BF45
:10302800C4F8082201F5FC71DAB200681DB102F09B
:103038003FF8002038BD02F019F9002038BD00BF64
:1030480001F00F01C1EBC10100EB8101B1F81002E1
:10305800704700BF70B501F07F05C5EBC50400EBF4
:10306800840401210026626484F83910E36484F83A
:103078003850266503691C2101FB0501012B08BF97
:10308800A2643831DAB200681DB102F011F80020EC
:1030980070BD02F0EBF8002070BD00BF38B54BB230
:1030A800002B0C46054619DB1C2101FB040101F528
:1030B800FC71DB0F01224B700C708A7095F8B833E5
:1030C800934201D1022038BD85F8B823286802F060
:1030D80069F954B1002085F8B80338BD01F07F04C0
:1030E8001C2101FB04013831E3E705F56F72297CE7
:1030F800286802F005FAEDE74AB2002A38B5054615
:103108001ADB1C2303FB010303F5FC73D20F002415
:103118005A7019709C7095F8B823012A01D10220C1
:1031280038BD0122194685F8B823286802F058F9F5
:1031380085F8B843204638BD01F07F011C2303FB06
:1031480001033833E2E700BF30B405686C6AD1B1D7
:10315800AB6A013904EB13440CD000231846403302
:1031680005EB830301305B68C0B2884204EB13446B
:103178000346F4DB403105EB810144EA02444C602C
:10318800002030BC704744EA0244AC62002030BCE6
:10319800704700BF0368002059627047002800F09C
:1031A800B2812DE9F0410368DD0782B004462FD5CE
:1031B800AB498A6802F00C02042A00F023818A686D
:1031C80002F00C02082A00F019816368B3F5803F09
:1031D80000F05A81B3F5A02F00F0E580A04D2A68D1
:1031E80022F480322A602A6822F480222A60002B86
:1031F80040F0E280FDF76EFE064605E0FDF76AFE48
:10320800801B642800F2F6802B689B03F6D42368A1
:103218009F0728D5924A916811F00C0F00F0908012
:10322800916801F00C01082900F08680E368002B02
:1032380000F00F818B4B8A4D01221A60FDF74AFE80
:10324800064605E0FDF746FE801B022800F2D28004
:103258002B689807F6D52B68226923F0F80343EA10
:10326800C2032B6023681A0752D4580730D57C4A0A
:10327800136C13F080537ED000267B4D2B68D90544
:1032880040F1A880A368012B00F00481052B00F011
:10329800C380734D2A6F22F001022A672A6F22F039
:1032A80004022A67002B40F0C080FDF713FE41F2AC
:1032B8008837804606E0FDF70DFEA0EB0800B8420F
:1032C80000F298802B6F9807F5D4002E40F0E88024
:1032D800A369CBB1624DAA6802F00C02082A36D065
:1032E800022B624B4FF000021A6000F0DF80FDF7FE
:1032F800F1FD2C46054604E0FDF7ECFD401B0228D5
:1033080078D823689B01F7D4002002B0BDE8F0818B
:10331800636903B3564B524D01221A60FDF7DAFD7B
:10332800064604E0FDF7D6FD801B022862D86B6FC5
:103338009B07F7D5236898E7526856023FF576AFA2
:10334800474A1268950722D5E268012A1FD0012052
:1033580002B0BDE8F081464A414D1360FDF7BAFD61
:10336800064604E0FDF7B6FD801B022842D86B6FC5
:103378009F07F7D4DEE70193136C43F0805313647F
:10338800136C03F080530193019B012675E73449C0
:1033980020690A6822F0F80242EAC0020A601A07A5
:1033A8007FF563AFB4E72E4B1A6842F480221A60A7
:1033B8001A6842F480321A60FDF78CFD284D0646E3
:1033C80004E0FDF787FD801B642813D82B689A0357
:1033D800F7D51CE72B6843F480732B60FDF77AFD63
:1033E80007462B68DA053FF54DAFFDF773FDC01BA7
:1033F8000228F6D9032002B0BDE8F0814A685002DD
:103408007FF5E3AE164A126891037FF501AF626853
:10341800002A7FF4FDAE9AE7114B1A6F42F00402BE
:103428001A671A6F42F001021A67FDF753FD0C4D37
:10343800804641F2883705E0FDF74CFDA0EB080017
:10344800B842D7D82B6F9B07F6D5002E3FF440AF74
:1034580026E0044A024D1360FDF73CFD06460EE0E7
:1034680000380240000047420070004060004742B8
:10347800800E4742FDF72EFD801B0228BAD82B6824
:103488009907F7D42368EEE6204A136843F480339B
:10349800136091E71D4A136F43F001031367C4E7F4
:1034A8001A4A136C23F08053136411E7FDF712FDD9
:1034B800064604E0FDF70EFD801B02289AD82B680B
:1034C8009901F7D4E369276A666AA26AE06A104933
:1034D8000E4C3B4343EA8613520843EA0063013A21
:1034E80043EA024301226B600A60FDF7F3FC0546DC
:1034F80005E0FDF7EFFC401B02283FF67BAF236891
:103508009A01F6D500E70120704700BF0038024055
:1035180060004742174908B58B6803F00C03042B79
:103528001BD0082B17D14A684B6813F4800302F0AC
:103538003F0214D149681048C1F38811A1FB00016A
:10354800FDF7F6FA0B4B5B68C3F3014301335B00ED
:10355800B0FBF3F008BD084808BD084808BD4B6833
:103568000648C3F38813A3FB00010023FDF7E0FA24
:10357800E8E700BF003802400024F400001BB70051
:1035880060B1484A136803F00F038B4208D2CBB2EC
:103598001370136803F00F03994201D0012070479C
:1035A80003682DE9F0419D0714D55C0704D53E4C0E
:1035B800A26842F4E052A2601A0704D53A4CA26805
:1035C80042F46042A260384C8568A26822F0F0029A
:1035D8002A43A260DF0704460D4622D54268012A25
:1035E8005BD0931E012B304B1B6850D9990725D50A
:1035F8002D4EB36823F003031343B360FDF76AFC51
:1036080041F28837804605E0FDF764FCA0EB08002E
:10361800B8423FD8B368626803F00C03B3EB820F7B
:10362800F2D1204A136803F00F039D4209D2EBB28E
:103638001370136803F00F039D4202D00120BDE808
:10364800F08123685A0706D51749E0688A6822F48A
:10365800E05202438A601B0707D5134A2169936821
:1036680023F4604343EAC1039360FFF753FF0E4B13
:103678000E499B680E4AC3F30313CB5C20FA03F38D
:1036880000201360FDF7DCFB0020BDE8F081980105
:10369800AED4D3E70320BDE8F081034B1B689E033B
:1036A800A6D4CBE7003C02400038024080980008CE
:1036B80018010020014B1868704700BF180100204E
:1036C800044B054A9B680549C3F382230868D35C09
:1036D800D840704700380240909800081801002030
:1036E800044B054A9B680549C3F342330868D35C19
:1036F800D840704700380240909800081801002010
:103708002DE9F04180460F4616461D46D8F8004080
:1037180001E06B1C0AD1A06837EA00030CBF012046
:1037280000208642F5D10020BDE8F0813DB1FDF7CB
:10373800D1FB069BC01A8542E8D8D8F800406368D8
:10374800D8F8042023F0E003B2F5827F636017D035
:10375800D8F82830B3F5005F08D00122002388F894
:10376800512088F850300320BDE8F08123684DF6D9
:10377800FF7213402360236843F400532360ECE78F
:10378800D8F80830B3F5004F02D0B3F5806FDFD119
:10379800236823F040032360DAE700BF2DE9F043F4
:1037A800044685B0012084F850000F461646994615
:1037B8000C9DFDF78FFB94F851206168D2B2012A65
:1037C800804611D0B1F5827F09D002200122002362
:1037D80084F8512084F8503005B0BDE8F083A36820
:1037E800002BF2D1042AF0D1002F64D0002E62D031
:1037F800B9F1000F5FD094F851302268012B04BF53
:10380800052384F8513000236365A4F83E90A4F89A
:1038180036901068A6634006A4F83C902763A4F885
:1038280034902364636403D4136843F04003136043
:10383800E368B3F5006F40D0002967D117F8013B62
:103848001373E38E013B9BB2E3864FF00109E38ECD
:103858009BB21BB9E38F9BB2002B3CD0B9F1000F90
:103868000FD0E38E9BB263B123689A68910708D59D
:103878003A781A73E38E013B9BB20137E3864FF027
:103888000009E38F9BB263B123689A68D20708D511
:10389800DB683370E38F013B9BB20136E3874FF05F
:1038A80001096B1CD3D0FDF715FBA0EB080085427E
:1038B800CDD803208AE7012088E7002957D0E38E76
:1038C8009BB2012B53D04FF00109E38E9BB213BB7F
:1038D800E38F9BB2FBB9CDF800802B460122022171
:1038E8002046FFF70DFF0028E3D10246CDF80080FF
:1038F8002B4680212046FFF703FF00283FD0636D49
:10390800202213436365012062655FE7E38E9BB263
:10391800012B9AD192E7B9F1000F0FD0E38E9BB239
:1039280063B123689A68910708D537F8022BDA60E3
:10393800E38E013B9BB2E3864FF00009E38F9BB215
:1039480063B123689A68D20708D5DB6826F8023B7A
:10395800E38F013B9BB2E3874FF00109681CB4D0A9
:10396800FDF7B8FAA0EB08008542AED8A1E737F812
:10397800023BD360E38E013B9BB2E386A3E7A368D7
:10398800002B7FF423AF23680390DA6803929B68C7
:103998000393039B1AE700BF38B5044690F851001B
:1039A8000125C0B2A84284F850500DD06568B5F51D
:1039B800827F04D00023022084F8503038BDA568E7
:1039C800002DF7D10428F5D100294ED0002A4CD07B
:1039D800002B4AD094F851002163012804BF052028
:1039E80084F8510000206065E386E38794F851501D
:1039F8002064042D6064E06CA386A38707BF1D497B
:103A08001D4B1E491E4BA2631E4D0164C3632168F2
:103A1800E38FC56400259BB20C310565FDF7C2FB39
:103A28002268A06C5368216B43F001035360E38E56
:103A380005640C329BB2C563C5640565FDF7B2FB2E
:103A480023681A68520603D41A6842F040021A60C2
:103A58005A6842F020025A605A6842F002025A60DC
:103A68000023002084F8503038BD0023012084F85A
:103A7800503038BD313C0008E53C0008413C0008A6
:103A8800353D00084D3C000800283AD090F85120F8
:103A9800F8B50025044602F0FF0185625AB3A7680D
:103AA8006368E66820696269E1693B43334303431D
:103AB8001343266AA0692768626A0B43022184F8C7
:103AC80051103968334300F40076000C334300F09A
:103AD80004002B43024321F0400139603B607A60C7
:103AE800FB69002223F400630121FB611046626533
:103AF80084F85110F8BD80F8501002F067FCA56AF0
:103B0800CDE70120704700BF90B10268022310B5CD
:103B180080F85130136823F040030446136002F024
:103B28002DFD0020606584F8500084F8510010BD18
:103B38000120704730B490F85040012C02D1022087
:103B480030BC704730BCFFF729BE00BFF8B590F80D
:103B58005030012B0DD0044690F851000123C0B21B
:103B6800984284F8503006D00220002384F8503060
:103B7800F8BD0220F8BD0029F7D0002AF5D0A068CA
:103B8800A28600230325B0F5004F84F85150216325
:103B98006365A363E28663642364A387E38722687B
:103BA8001FD0A06CE38E114D0564114F114EC763F1
:103BB80000250C329BB2C6640565FDF7F3FA23684D
:103BC8001A68520603D41A6842F040021A605A680A
:103BD80042F020025A605A6842F002025A600020FD
:103BE800C3E7136843F480431360DAE7213C000815
:103BF800713C00084D3C000810B490F85040012C6E
:103C080003D05DF8044BFFF7C7BE02205DF8044BF4
:103C1800704700BF704700BF08B5806BFFF7FAFF19
:103C280008BD00BF704700BF08B5806BFFF7FAFFFB
:103C380008BD00BF704700BF08B5806BFFF7FAFFEB
:103C480008BD00BF08B5836B19684A6822F00302F3
:103C58004A605A6D012142F010025A65184683F8ED
:103C6800511003F003FF08BD30B5054685B0846BDD
:103C7800FDF730F92B681A6812F4807223D1216895
:103C88004B6823F002034B60009064238021204698
:103C9800FFF736FD38B1636D43F020036365636D4C
:103CA80043F020036365A36833B922680393D3689C
:103CB800039393680393039B01230022E28684F80D
:103CC8005130636D23B9204603F0A0FE05B030BD26
:103CD800204603F0CBFE05B030BD00BF08B5036831
:103CE800806B1B68DB050FD4026841685368B1F527
:103CF800827F23F00303536009D001230022C28787
:103D080080F85130436D73B903F07EFE08BD8368B7
:103D1800B3F5004F02D0B3F5806FEED1136823F0EE
:103D280040031360E9E703F0A1FE08BD30B505467E
:103D380083B0846BFDF7CEF82B681A6812F4807292
:103D48001BD10090642380212046FFF7D9FC38B1AD
:103D5800636D43F020036365636D43F0200363657F
:103D680021684B68002223F0030301204B60E286A0
:103D7800E28784F85100636D23B9204603F03AFEC8
:103D880003B030BD204603F071FE03B030BD00BF64
:103D9800026830B55168936803F04105012D85B07C
:103DA800044654D09D074CD413F4B07F47D08D06F9
:103DB80045D558060ED594F85100032850D0606DAB
:103DC800002540F0040060650095D0680090906878
:103DD800009000989D060CD5606D002540F001000C
:103DE8006065029590680290106820F040001060AD
:103DF8000298D80508D5636D002043F00803636571
:103E0800039093680393039B636DC3B1536823F0D6
:103E1800E003536001208B0784F851001CD05368DD
:103E2800E06C23F00303536018B1114B0365FDF7F1
:103E3800FBF9A06C18B10E4B0365FDF7F5F905B059
:103E480030BD0806B0D5636C20469847F7E74D06A5
:103E5800A8D5036C9847F2E7204603F007FEEEE783
:103E680000230193D368019393680193019BE6E7CC
:103E78007D3E000808B5836B0022DA871846DA868B
:103E880003F0F4FD08BD00BFF0B5046AD1F808E0FE
:103E98000E68134D24F001040462036A47688269BE
:103EA80023F0020322F07302A84243EA0E0342EA17
:103EB800060208D00B4CA04205D0496847608261D1
:103EC80041630362F0BDCE684D698C6923F0080335
:103ED80027F4407733432C4323F004032743ECE7CC
:103EE8000000014000040140F0B5046AD1F808E080
:103EF8000E68144D24F480740462036A4768C2692A
:103F080023F4007322F07302A84243EA0E2342EA24
:103F1800060208D00C4CA04205D049684760C2612F
:103F2800C1630362F0BDCE684D698C6923F40063F8
:103F380027F4405743EA06232C4323F4806347EAD7
:103F48000417EAE70000014000040140F0B4046AE5
:103F58008F680E68104D24F480540462026A446825
:103F6800C36922F4005223F4E643A84242EA073226
:103F780043EA06230AD005F58065A84206D04968B9
:103F88004460C361F0BC0164026270474D6924F467
:103F9800804444EA8514F2E70000014001680222E7
:103FA80010B480F839200A680124034622430A60C5
:103FB800002083F839405DF8044B70470368DA68DD
:103FC80042F00102DA601A6842F001021A60002029
:103FD800704700BF704700BF03680122186A02FAE1
:103FE80001F120EA010010B418621A6A0A4C114360
:103FF800A34219620AD0094A934207D01A685DF8A9
:10400800044B42F0010200201A6070475A6C42F4D7
:1040180000425A64F2E700BF00000140000401407A
:1040280090F83830012B40D002220368F0B480F8B1
:1040380039209A680C6822F47F4222F07702012521
:10404800402C80F838509A6073D018D9702C60D002
:104058002DD9B4F5805F57D0B4F5005F1CD18A68BC
:104068004D68CC6899682A4342EA042221F47F41CA
:104078000A439A609A6842F480429A600CE0102CD5
:1040880032D038D9202C6CD0302C05D19A6822F047
:10409800700242F037029A600023012280F839202A
:1040A80080F83830F0BC1846704702207047502C12
:1040B8005ED0602CF0D11C6A4D68CE6824F01004E4
:1040C8001C6299691A6A21F4704122F0A00242EA3E
:1040D800051241EA063199611A629A6822F0700263
:1040E80042F067029A60D7E79A6822F0700242F0BD
:1040F80017029A60D0E7002CCED19A6822F070029D
:1041080042F007029A60C7E79A6822F007029A60AD
:10411800C2E78A684D68CC6899682A4342EA042253
:1041280021F47F410A439A609A6842F077029A60C4
:10413800B2E71D6A1E6A4C68CF6826F001061E6247
:104148009A6925F00A0122F0F00242EA0712214397
:104158009A6119629A6822F0700242F047029A60E6
:104168009AE79A6822F0700242F027029A6093E771
:104178001D6A1E6A4C68CF6826F001061E629A699D
:1041880025F00A0122F0F00242EA071221439A615F
:1041980019629A6822F0700242F057029A607BE72F
:1041A800704700BF704700BF704700BF704700BF2F
:1041B80003681A69910710B5044602D5DA689207B0
:1041C80062D41A69500702D5DA68510749D41A69C6
:1041D800120702D5DA68100731D41A69D20602D557
:1041E800DA68D00618D41A69D10702D5DA68D20776
:1041F8006BD41A69100602D5DA6811066DD41A69EB
:10420800520602D5DA68500657D41A69910602D5C3
:10421800DA68920649D410BD6FF010021A61DB69A2
:10422800082213F4407F2276204661D1FFF7B8FFB9
:104238002046FFF7B9FF002223682276D3E76FF004
:1042480008021A61DB69042299072276204655D1B3
:10425800FFF7A6FF2046FFF7A7FF00222368227674
:10426800BBE76FF004021A619B69022213F4407FD6
:10427800227620463FD1FFF793FF2046FFF794FFB1
:10428800002223682276A2E76FF002021A619B6976
:1042980001229B07027628D1FFF782FF2046FFF70D
:1042A80083FF0022236822768BE76FF020022046E6
:1042B8001A61BDE8104000F091B96FF040021A6130
:1042C8002046FFF773FF23689FE76FF001021A612A
:1042D800204603F0D9FB23688BE76FF080021A6150
:1042E800204600F07DF9236889E7FFF75BFFD8E7F0
:1042F800FFF758FF9FE7FFF755FFC1E7FFF752FFAA
:10430800ABE700BF364A0368904270B454D0B0F1AE
:10431800804F30D0A2F57C4290422CD002F58062CA
:10432800904228D002F58062904224D002F578426B
:10433800904220D002F57052904230D002F580624F
:1043480090422CD002F58062904228D0A2F5983293
:10435800904224D002F58062904220D002F580621B
:1043680090421CD08C680A6803600123C462826290
:1043780070BC436170474A68CE688D680C6823F04A
:1043880070031343174A23F4407333439042036086
:10439800C56284621DD00123436170BC7047CD683B
:1043A8008C680A6823F440732B4303600123C462BA
:1043B800826270BC436170474E68CC688D680A6839
:1043C80023F07003334323F4407323430360C5622F
:1043D80082620B6903630123436170BC704700BFAD
:1043E8000000014000040140B8B190F8393010B520
:1043F80003F0FF0204465BB1022384F839302068D9
:10440800211DFFF77FFF012384F83930002010BDFC
:1044180080F8382002F03AFAEEE70120704700BF32
:10442800B8B190F8393010B503F0FF0204465BB11B
:10443800022384F839302068211DFFF763FF012328
:1044480084F83930002010BD80F83820FFF7C2FD0D
:10445800EEE70120704700BFF0B5046AD1F808E024
:104468000E68144D24F010040462036A47688269D8
:1044780023F0200322F4E642A84243EA0E1342EA5C
:10448800062208D00C4CA04205D0496847608261DA
:1044980081630362F0BDCE684D698C6923F08003A7
:1044A80027F4406743EA06132C4323F0400347EA06
:1044B8008407EAE7000001400004014038B590F89D
:1044C8003830012B2BD00D4602230121044680F8F9
:1044D800381080F839300C2A1AD8DFE802F035197C
:1044E80019190719191947191919220029460068B5
:1044F800FFF7B2FF23682869996941F4006199615F
:10450800996921F4806199619A6942EA00229A6165
:104518000123002084F8393084F8380038BD02209F
:1045280038BD29460068FFF711FD23682869D96955
:1045380041F40061D961D96921F48061D961DA69EE
:1045480042EA0022DA61E3E729460068FFF79CFCAB
:1045580023682869996941F008019961996921F0EE
:10456800040199619A6902439A61D1E72946006872
:10457800FFF7BAFC23682869D96941F00801D961B5
:10458800D96921F00401D961DA690243DA61BFE728
:1045980090F83830012B1ED002460220136870B400
:1045A80082F839005C6824F0700491E860005C606F
:1045B800586828435860986820F080009860996887
:1045C8000024012531439960204682F8395082F849
:1045D800384070BC70470220704700BF704700BF6A
:1045E800704700BF2DE9F047046822698246C06819
:1045F800DAF81C10DAF80830DAF81060DAF8145033
:1046080022F4405202432261E268DAF81800334388
:1046180022F416422B4322F00C020B431343E360AF
:10462800636923F440730343B1F5004F6361AB4BF7
:1046380061D09C4200F0018103F580639C4200F048
:10464800FC80FFF73DF8A64FDAF8043000EB800055
:1046580000EB80009B00B0FBF3F3A7FB03235B098F
:104668001D01FFF72DF8DAF8043000EB80009B00FD
:1046780000EB8000B0FBF3F6FFF722F8DAF804202D
:1046880000EB8000930000EB8000B0FBF3F3A7FB86
:1046980003234FF064095B0909FB13631B013233E1
:1046A800A7FB03235B0903F0F006FFF709F8DAF824
:1046B800042000EB8000930000EB8000B0FBF3F8CF
:1046C800FEF7FEFFDAF8043000EB80009B0000EBF9
:1046D8008000B0FBF3F0A7FB0030400909FB108312
:1046E8001B013233A7FB0323C3F3431333432B4488
:1046F800A360BDE8F0879C425DD003F580639C42CF
:1047080059D0FEF7DDFF764FDAF8043000EB800071
:1047180000EB80005B00B0FBF3F3A7FB03235B090E
:104728001E01FEF7CDFFDAF8043000EB80005B00D5
:1047380000EB8000B0FBF3F5FEF7C2FFDAF80420C7
:1047480000EB8000530000EB8000B0FBF3F3A7FB05
:1047580003235B094FF0640909FB1353DB00323371
:10476800A7FB03231B0903F4F875FEF7A9FFDAF882
:10477800042000EB800000EB80005300B0FBF3F84E
:10478800FEF79EFFDAF8043000EB800000EB8000B3
:104798005B00B0FBF3F3A7FB03235B0909FB13835F
:1047A800DB003233A7FB0323C3F3421333442B4408
:1047B800A360BDE8F087FEF793FF494FDAF80430AD
:1047C80000EB800000EB80005B00B0FBF3F3A7FB7D
:1047D80003235B091E01FEF783FFDAF8043000EBC0
:1047E80080005B0000EB8000B0FBF3F5FEF778FF7C
:1047F800DAF8042000EB8000530000EB8000B0FBE7
:10480800F3F3A7FB03234FF064095B0909FB135378
:10481800DB003233A7FB03231B0903F4F875FEF70B
:104828005FFFDAF8042000EB8000530000EB800003
:10483800B0FBF3F8FEF754FFA4E7FEF751FF284F4B
:10484800DAF8043000EB800000EB80009B00B0FB3E
:10485800F3F3A7FB03235B091D01FEF741FFDAF819
:10486800043000EB80009B0000EB8000B0FBF3F607
:10487800FEF736FFDAF8042000EB8000930000EB27
:104888008000B0FBF3F3A7FB03234FF064095B0937
:1048980009FB13631B013233A7FB03235B0903F0F6
:1048A800F006FEF71DFFDAF8042000EB8000930005
:1048B80000EB8000B0FBF3F8FEF712FFDAF80430E3
:1048C80000EB800000EB80009B00B0FBF3F3A7FB3C
:1048D80003235B0909FB138302E700BF00100140B3
:1048E8001F85EB5160B338B590F83930044603F0B2
:1048F800FF0203B32268242384F83930D36823F4F1
:104908000053D3602046FFF76DFE23681A6922F42E
:1049180090421A615A6922F02A025A61DA6800251F
:10492800202142F40052DA602846E56384F8391001
:1049380084F83A1038BD80F8382002F021F9D9E718
:104948000120704790F83A30202B01D002207047A0
:10495800D9B1D2B190F83830012BF7D030B4002358
:104968000468C2852225C36380F83A506569828548
:1049780045F00105816280F838306561E26842F4EB
:1049880090721846E26030BC70470120704700BF43
:10499800F8B590F83940202C01D00220F8BD59B361
:1049A80052B390F83840012CF7D004460126006B2A
:1049B80084F83860134600252268E3842126E563DD
:1049C800DFF840E084F839600C4F0D4EA384216273
:1049D80004320565C0F83CE00764C664FCF7E2FBF6
:1049E80023686FF040021A605A6984F8385042F020
:1049F800800228465A61F8BD0120F8BD414A0008E6
:104A0800D14A0008114A000808B50368806B1B6882
:104A180013F480730AD10268C384536923F08003B6
:104A28005361D36843F04003D36008BD02F0F8FF38
:104A380008BD00BF704700BF08B5806BFFF7FAFFDD
:104A480008BD00BF8368B3F5805F28D0036973B1E0
:104A58000368826A5B68511C03F07F0381621370EC
:104A6800C38D013B9BB2C38543B100207047836A65
:104A78000268591C526881621A70F1E70268D168AD
:104A880021F4907110B5D1605169202421F0010101
:104A9800516180F83A4002F0C5FF002010BD02695C
:104AA800836A3AB902685268C2F3080223F8022BF3
:104AB8008362D5E702685268D2B223F8012B836279
:104AC800CEE700BF704700BF806B08B5036859691F
:104AD80090F83920212A1BD0596990F83A20222AC7
:104AE80006D0C36B43F01003C363FFF7EBFF08BDA9
:104AF8004A06F6D50022C285DA6822F49072DA6096
:104B08005A69202122F001025A6180F83A10E8E738
:104B18000906E1D50022C284DA68202122F0C00209
:104B2800DA6080F83910D7E703681A6870B5160795
:104B3800DD685969044649D011F0010152D0D60701
:104B480005D5E80503D5E06B40F00100E0635607A2
:104B58007AD5002900F08480E16B900741F00201CA
:104B6800E16376D5E16B41F00401E163110772D48A
:104B7800E16B002929D0910605D5AA0603D594F83A
:104B88003A20222A7CD05D69E16B0E0702D415F029
:104B980040057AD0DA6822F49072DA605A692021E6
:104BA80022F001025A6184F83A105A6955065ED516
:104BB8005A69606B22F040025A61002857D03B4B7B
:104BC8000365FCF731FB002855D170BD96060CD55E
:104BD800A9060AD590F83A30222BF6D1BDE87040E4
:104BE800FFF730BF15F4907FA9D110060ED45606F2
:104BF800EBD56D06E9D5DA68202122F04002DA60AB
:104C0800204684F8391002F00BFF70BD2906EED556
:104C180094F83920212AD8D1A268B2F5805F226A97
:104C280038D0511C216212785A60E28C013A92B253
:104C3800E284002AC9D1DA6822F08002DA60DA68F0
:104C480042F04002DA6070BD96070BD5002989D181
:104C58008EE711078CD5E16B41F00801E16387E726
:104C6800900785D4100783D5002981D0F3E7204623
:104C7800FFF728FF70BD606BBDE87040036D1847F3
:104C88002046FFF7DFFE23687DE72046FFF71AFF7F
:104C9800E56370BD11882069C1F30801596010B936
:104CA80002322262C1E701322262BEE7B94C000833
:104CB80008B5836B0022DA851846DA84FFF702FF0D
:104CC80008BD00BF84B038B50A9D05AC012D84E845
:104CD8000E00044618D0C36843F04003C36000F0D8
:104CE80031FC4FF48033A363089B012B07D1A368E1
:104CF80043F00603A360A36843F02003A360BDE864
:104D08003840002004B07047836B119A23F4803335
:104D18008363C36823F4840323F04003C360C36838
:104D2800012A23F44013C36003D0204600F00AFC94
:104D3800DAE7C36843F48013C360F6E7024600204D
:104D4800936843F001039360704700BF0246002058
:104D5800936823F001039360704700BF08B5C368E8
:104D6800012923F0C043C36009D019B9C36843F0CF
:104D78008043C3603220FCF7B3F8002008BDC36845
:104D880043F00053C3603220FCF7AAF8002008BDA6
:104D980084B02DE9F04308AC84E80E00129DDDF8DC
:104DA8002C90836B8E46002D40F0868043F40013D0
:104DB80083630023C0F8003E0D9BD0F80028C0F89C
:104DC8000028012B00F5006700F08980D0F8003832
:104DD80043F00303C0F800384FF484630361474B82
:104DE80001E0013B02D002699106FAD41023036165
:104DF800424B01E0013B02D00269D206FAD40022FC
:104E08004FF0FF333A617A61BB61FA61BEF1000F7E
:104E180028D0144600F510634FF09048FF26196813
:104E280001320029B4BFC3F800801C6072451C61C0
:104E38009E6003F12003F2D100210E4600F5306395
:104E48004FF090484FF0FF0C1C680131002CB4BFA4
:104E5800C3F800801E608A421E61C3F808C003F1CF
:104E68002003F1D13B69B9F1010F23F480733B6151
:104E780026D000226FF0804382614361B9F1000FB0
:104E880003D1836943F01003836181691C4B0E9A37
:104E98000B4383611AB1836943F008038361012DD1
:104EA80005D1836943F0804343F004038361BDE87F
:104EB800F043002004B0704743F40023836378E78D
:104EC800104B3B633B6B43F4803343F003033B637A
:104ED80000226FF08043396B82614361D5E70A9BFA
:104EE80023B9D0F80038C0F8003875E7D0F8003892
:104EF80043F00103C0F800386EE700BF400D03001F
:104F080000383C8000018000890141F020010161E6
:104F1800054A01E0013A05D0036913F02003F9D1ED
:104F28001846704703207047400D030000F50062E3
:104F3800D0F8080810F0060012D0936803F00603B2
:104F4800022B0CD0936803F00603062B07D0936856
:104F580003F00603042B14BF00200220704703202F
:104F6800704700BF30B44B78012B20D00C78D0F8B4
:104F78001C584FF4803300F50062A34000F5306000
:104F88002B4300EB4410D36103681B040CD48A68DC
:104F9800CC780168C2F30A0242F0805343F400431C
:104FA80043EA84430B430360002030BC70470C780D
:104FB800D0F81C58A34000F500629BB200F51060C1
:104FC8002B4300EB4410D36103681A04ECD48A68BD
:104FD800CD780168C2F30A0242F0805343F40043DB
:104FE80043EA854343EA84530B43036030BC002003
:104FF800704700BF00F000B870B44B78012B26D082
:105008000D782A4A00F5306101EB45114FF0006632
:105018000B684FF0804423F400430B600E600C6073
:1050280001E0013A3FD08B6813F01003F9D100F585
:105038000062546844F480645460D1694FF480304D
:10504800A84021EA0001D161184670BC70470C786D
:10505800164B00F5106101EB44114FF000660A6829
:105068004FF0804522F400420A600E600D6001E0B6
:10507800013B18D08A685500FAD44FF48463036161
:105088000A4B01E0013B02D002699206FAD40123DF
:10509800D0F81C28A3409BB222EA0303C0F81C38AE
:1050A80070BC00207047032070BC7047400D03009F
:1050B8002DE9F0414C78012C3CD00D784C6900F575
:1050C800306303EB45131D69ED0CED041D611D698B
:1050D80025F0FF5525F4C0151D6104B38D68624E97
:1050E8001F692C44013CB4FBF5F406EAC4463E4370
:1050F8001E61A4B205FB04F41D69C4F312042C4319
:105108001C61012A04BFCA685A61CA78012A4CD0B6
:105118001A6842F004421A600020BDE8F0818C68E9
:105128001D69C4F312042C431C611C6944F4002457
:105138001C61E6E74D690E78002D42D000F510633A
:1051480003EB4613D1F80880D3F810C0464F4FEA56
:10515800DC4C4FEACC4CC3F810C0D3F810C02CF08C
:10516800FF5C2CF4C01CC3F810C0D3F810C005EBCA
:10517800080E0EF1FF3EBEFBF8FE07EACE4747EAEF
:105188000C071F61D3F810E0C5F3120747EA0E07B2
:105198001F61CF78012F56D0012A61D0B440D0F8D2
:1051A80034683443C0F83448B2E7D0F8082812F419
:1051B800807F1A680CBF42F0005242F080521A6099
:1051C800A6E700F5106303EB4613012A1C6924F0D7
:1051D800FF5424F4C0141C611C6944F400241C61AD
:1051E8001C694FEAD4444FEAC4441C61CC7824D0EB
:1051F800012C8DD1D0F8084814F4807F1C680CBFAE
:1052080044F0005444F080541C601C6844F004448A
:105218001C60002A80D1ADB20335AD083FF47CAFE5
:10522800CB6800F5805003EB850100EB063653F898
:10523800042B32608B42FAD16EE70F695F61012C53
:105248007FF466AFD6E71C6924F0C0441C611C6972
:10525800012A44F000541C61CCD10C695C61C9E797
:105268000A695A6154E700BF0000F81F4B78012B08
:10527800F0B427D00B784C6900F5306000EB431090
:105288000369DB0CDB040361036923F0FF5323F498
:10529800C01303618B689CB9046944F40024046159
:1052A8000469C3F312032343012A036104BFCB68D3
:1052B8004361036843F0044303600020F0BC704777
:1052C8004B61E9E74C690E78002C30D000F510638B
:1052D80003EB46138F681D69ED0CED041D611D6914
:1052E80025F0FF5525F4C0151D611D69BC4245F424
:1052F800002588BF4F611D611D6988BF3C46C4F306
:1053080012042C431C611C68012A44F004441C60EC
:1053180020D04B69002BD0D0D0F83428012303FAD1
:1053280006F61643C0F834680020F0BC704700F554
:10533800106303EB46131C6924F0FF5424F4C014D3
:105348001C611C6944F400241C611C69E40CE4041D
:105358001C61D8E70A695A61AFE700BF10B49DF82D
:1053680004406CB903339B080AD000F5805000EB69
:10537800023201EB830051F8043B13608142FAD1F9
:1053880000205DF8044B70470332920808D000F5FE
:10539800805001EB8202036841F8043B8A42FAD14B
:1053A800084670474B78012B0B7810D000F5306019
:1053B80000EB43100368002B03DB036823F08043F2
:1053C8000360036843F4001303600020704700F58E
:1053D800106000EB43100368002BEEDAF1E700BF22
:1053E8004B78012B0B780CBF00F5106000F530608E
:1053F80000EB4310036823F400130360CB78023BEF
:10540800012B03D8036843F08053036000207047E2
:10541800D0F8003823F4FE63C0F80038D0F800381C
:10542800090101F4FE611943C0F800180020704713
:1054380000F5006208B5536823F0020303205360A7
:10544800FBF74EFD002008BD00F5006208B5536863
:1054580043F0020303205360FBF742FD002008BD20
:105468004269806910407047D0F8183800F500602C
:10547800C0691840000C7047D0F8183800F5006073
:10548800C069184080B2704700F5306303EB4111E2
:1054980000F500608A6840691040704710B4D0F881
:1054A8001048D0F8343800EB411000F51060CB40BC
:1054B800DB01DBB28068234318405DF8044B70477A
:1054C800406900F001007047D0F8003923F4FF6309
:1054D80023F0070300F50062C0F80039936803F071
:1054E8000603042B05D1D0F8003943F00303C0F8B4
:1054F8000039536843F4807353600020704700BF3D
:1055080010B40024C0F8104BD0F8104B44F4002419
:10551800C0F8104BD0F8104B44F01804C0F8104BEA
:10552800D0F8104B012944F0C044C0F8104B05D105
:105538004FF08021C0F8142BC0F8001B00205DF844
:10554800044B70470B4B01E0013B10D00269002A65
:10555800FADA0369074A43F00103036101E0013AFB
:1055680005D0036913F00103F9D1184670470320E9
:10557800704700BF400D0300D0F818321BB100205F
:10558800C3F8140270470220704700BFD0F81C32DD
:1055980010B5D0F818425BB194F80002FF2807D084
:1055A8009B6894F8012221469847FF2384F800322B
:1055B800002010BD432303800048704740000020AE
:1055C800432303800048704784000020432303805E
:1055D80000487047D40000200A2303800048704721
:1055E800C800002038B50446D0F8185201F0D0FCA5
:1055F800D4F81832C5F80C024BB1D4F81C32D5F8DF
:105608000402DB6805F503719847002038BD0220C5
:1056180038BD00BF70B50B7813F060020C4612D08D
:10562800202A0ED1CA88054612B31B06D0F8186284
:1056380012D44B7886F8003286F80122314600F001
:1056480035FC002070BD4B780A2BFAD101220B499A
:1056580000F016FC002070BDD0F81C3248789B681A
:1056680031469847E2883146284600F009FCE8E7C9
:10567800D0F81C3248789B689847E2E7C0040020BD
:1056880010B58121044601F01BFC0121204601F0E0
:1056980017FC2046822101F013FCD4F8183253B1CC
:1056A800D4F81C325B689847D4F8180203F0ECFF72
:1056B8000023C4F81832002010BD00BFF8B5037CE1
:1056C800044673BB4FF400730222812101F0E8FB0A
:1056D8004FF4007302220121204601F0E1FB082368
:1056E80003228221204601F0DBFB4FF4077003F010
:1056F800C3FF0546C4F8180230B3D4F81C321B683F
:105708009847277CD5F804220026C5F8146220465D
:10571800C5F818628FB14023012101F02BFC3046F7
:10572800F8BD40230222812101F0BAFB4023022266
:105738000121204601F0B4FBD1E74FF400730121A9
:1057480001F018FC3846F8BD0120F8BD19B1C0F8C1
:105758001C12002070470220704700BFD0F8183292
:105768000020C3F80812C3F810227047D0F8183286
:105778000020C3F804127047D0F818228AB110B577
:10578800D2F814420CB1012010BD0123C2F8143222
:105798008121B2F81032D2F8082201F0DDFB204650
:1057A80010BD0220704700BFD0F818228AB110B58A
:1057B800047CD2F804222CB14023012101F0DAFB49
:1057C800002010BD4FF40073012101F0D3FB2046E7
:1057D80010BD0220704700BF88B108B5D0F8143258
:1057E80013B10023C0F8143209B1C0F81012012314
:1057F800027080F8FC3101F013FB002008BD022084
:10580800704700BF19B1C0F8141200207047022079
:10581800704700BF08B501F035FB002008BD00BF88
:1058280008B5D0F8143213B11B68984708B10220A4
:1058380008BD08BD08B5D0F814325B689847002049
:1058480008BD00BF38B5044600F50275284600F0CB
:10585800DDFA94F80812B4F80E32C4F8F8310122CF
:1058680001F01F039342C4F8F42115D00ED3022B84
:1058780006D001F08001204601F030FB002038BD41
:105888002946204600F05AFA002038BD294620460D
:1058980000F0E6F8002038BD2946204600F030FA2E
:1058A800002038BD10B5044631B91346D0F8F421AC
:1058B800032A0CD0002010BDD0F814329B69002BAD
:1058C800F8D090F8FC21032AF4D19847F2E7D0F8F1
:1058D8000C11D0F8102191420CD8D0F814321B6961
:1058E8001BB190F8FC21032A0FD0204600F0F6FAED
:1058F800002010BD891A8A4228BF0A4692B2C0F811
:105908000C11194600F0E2FAD4E79847EDE700BF1A
:1059180070B5044651B91346D0F8F421022A15D0BF
:1059280094F80032012B0CD0002070BDD0F814324E
:105938005B69002BF8D090F8FC21032AF4D1984732
:10594800F2E7002384F80032002070BDC669026ABD
:10595800964223D88369B3FBF2F502FB15358DB95E
:105968009A420FD8D0F8F82193420BD22A4600F079
:1059780095FAC4F8F8512B462A462946204601F0E4
:10598800F9FACDE7D4F81432DB681BB194F8FC219E
:10599800032A0BD0204600F0ADFAC1E7B21A0D4633
:1059A800C261194692B200F079FAE4E720469847B6
:1059B800F0E700BF38B50022044640231D461146D3
:1059C80001F06EFA2B460022C4F8105120468021BF
:1059D80001F066FAD4F818322562012284F8FC2115
:1059E8002BB1D4F8143221795B68204698470020FF
:1059F80038BD00BF01740020704700BF90F8FC213B
:105A080080F8FD21042380F8FC310020704700BF96
:105A18000346002093F8FD2183F8FC21704700BF5E
:105A280090F8FC21032A01D00020704708B5D0F86F
:105A38001432DB6903B19847002008BD0020704785
:105A4800002070470020704708B50121D0F81422C3
:105A580080F8FC11526801799047002008BD00BF0A
:105A680030B54B7883B00D460446092B0BD8DFE8D8
:105A780003F035490A590A05660A7D158B8813B95A
:105A8800CB88002B7FD08021204601F027FA2046C2
:105A9800002101F023FA002003B030BD8978974D2A
:105AA80001292970EFD890F8FC31022B00F0898089
:105AB800032BE8D1002900F016814168012909D09B
:105AC800C9B2FFF7B7FE297861602046FFF7A8FE44
